{
	"contracts/PriceConverter.sol": {
		"PriceCoverter": {
			"abi": [
				{
					"inputs": [
						{
							"internalType": "uint256",
							"name": "ethAmount",
							"type": "uint256"
						}
					],
					"name": "getConversionRate",
					"outputs": [
						{
							"internalType": "uint256",
							"name": "",
							"type": "uint256"
						}
					],
					"stateMutability": "view",
					"type": "function"
				}
			],
			"devdoc": {
				"kind": "dev",
				"methods": {},
				"version": 1
			},
			"evm": {
				"assembly": "    /* \"contracts/PriceConverter.sol\":135:1045  library PriceCoverter {... */\n  dataSize(sub_0)\n  dataOffset(sub_0)\n  0x0b\n  dup3\n  dup3\n  dup3\n  codecopy\n  dup1\n  mload\n  0x00\n  byte\n  0x73\n  eq\n  tag_1\n  jumpi\n  mstore(0x00, 0x4e487b7100000000000000000000000000000000000000000000000000000000)\n  mstore(0x04, 0x00)\n  revert(0x00, 0x24)\ntag_1:\n  mstore(0x00, address)\n  0x73\n  dup2\n  mstore8\n  dup3\n  dup2\n  return\nstop\n\nsub_0: assembly {\n        /* \"contracts/PriceConverter.sol\":135:1045  library PriceCoverter {... */\n      eq(address, deployTimeAddress())\n      mstore(0x40, 0x80)\n      jumpi(tag_1, lt(calldatasize, 0x04))\n      shr(0xe0, calldataload(0x00))\n      dup1\n      0x6e5b6b28\n      eq\n      tag_2\n      jumpi\n    tag_1:\n      0x00\n      dup1\n      revert\n        /* \"contracts/PriceConverter.sol\":752:1043  function getConversionRate(uint256 ethAmount) public view returns (uint256) {... */\n    tag_2:\n      tag_3\n      0x04\n      dup1\n      calldatasize\n      sub\n      dup2\n      add\n      swap1\n      tag_4\n      swap2\n      swap1\n      tag_5\n      jump\t// in\n    tag_4:\n      tag_6\n      jump\t// in\n    tag_3:\n      mload(0x40)\n      tag_7\n      swap2\n      swap1\n      tag_8\n      jump\t// in\n    tag_7:\n      mload(0x40)\n      dup1\n      swap2\n      sub\n      swap1\n      return\n    tag_6:\n        /* \"contracts/PriceConverter.sol\":819:826  uint256 */\n      0x00\n        /* \"contracts/PriceConverter.sol\":838:854  uint256 ethPrice */\n      dup1\n        /* \"contracts/PriceConverter.sol\":857:867  getPrice() */\n      tag_10\n        /* \"contracts/PriceConverter.sol\":857:865  getPrice */\n      tag_11\n        /* \"contracts/PriceConverter.sol\":857:867  getPrice() */\n      jump\t// in\n    tag_10:\n        /* \"contracts/PriceConverter.sol\":838:867  uint256 ethPrice = getPrice() */\n      swap1\n      pop\n        /* \"contracts/PriceConverter.sol\":877:899  uint256 ethAmountInUsd */\n      0x00\n        /* \"contracts/PriceConverter.sol\":927:931  1e18 */\n      0x0de0b6b3a7640000\n        /* \"contracts/PriceConverter.sol\":914:923  ethAmount */\n      dup5\n        /* \"contracts/PriceConverter.sol\":903:911  ethPrice */\n      dup4\n        /* \"contracts/PriceConverter.sol\":903:923  ethPrice * ethAmount */\n      tag_12\n      swap2\n      swap1\n      tag_13\n      jump\t// in\n    tag_12:\n        /* \"contracts/PriceConverter.sol\":902:931  (ethPrice * ethAmount) / 1e18 */\n      tag_14\n      swap2\n      swap1\n      tag_15\n      jump\t// in\n    tag_14:\n        /* \"contracts/PriceConverter.sol\":877:931  uint256 ethAmountInUsd = (ethPrice * ethAmount) / 1e18 */\n      swap1\n      pop\n        /* \"contracts/PriceConverter.sol\":1022:1036  ethAmountInUsd */\n      dup1\n        /* \"contracts/PriceConverter.sol\":1015:1036  return ethAmountInUsd */\n      swap3\n      pop\n      pop\n      pop\n        /* \"contracts/PriceConverter.sol\":752:1043  function getConversionRate(uint256 ethAmount) public view returns (uint256) {... */\n      swap2\n      swap1\n      pop\n      jump\t// out\n        /* \"contracts/PriceConverter.sol\":167:534  function getPrice() internal view returns (uint256) {... */\n    tag_11:\n        /* \"contracts/PriceConverter.sol\":210:217  uint256 */\n      0x00\n        /* \"contracts/PriceConverter.sol\":335:366  AggregatorV3Interface priceFeed */\n      dup1\n        /* \"contracts/PriceConverter.sol\":391:433  0xD4a33860578De61DBAbDc8BFdb98FD742fA7028e */\n      0xd4a33860578de61dbabdc8bfdb98fd742fa7028e\n        /* \"contracts/PriceConverter.sol\":335:434  AggregatorV3Interface priceFeed = AggregatorV3Interface(0xD4a33860578De61DBAbDc8BFdb98FD742fA7028e) */\n      swap1\n      pop\n        /* \"contracts/PriceConverter.sol\":446:455  int price */\n      0x00\n        /* \"contracts/PriceConverter.sol\":462:471  priceFeed */\n      dup2\n        /* \"contracts/PriceConverter.sol\":462:487  priceFeed.latestRoundData */\n      0xffffffffffffffffffffffffffffffffffffffff\n      and\n      0xfeaf968c\n        /* \"contracts/PriceConverter.sol\":462:489  priceFeed.latestRoundData() */\n      mload(0x40)\n      dup2\n      0xffffffff\n      and\n      0xe0\n      shl\n      dup2\n      mstore\n      0x04\n      add\n      0xa0\n      mload(0x40)\n      dup1\n      dup4\n      sub\n      dup2\n      dup7\n      dup1\n      extcodesize\n      iszero\n      dup1\n      iszero\n      tag_17\n      jumpi\n      0x00\n      dup1\n      revert\n    tag_17:\n      pop\n      gas\n      staticcall\n      iszero\n      dup1\n      iszero\n      tag_19\n      jumpi\n      returndatasize\n      0x00\n      dup1\n      returndatacopy\n      revert(0x00, returndatasize)\n    tag_19:\n      pop\n      pop\n      pop\n      pop\n      mload(0x40)\n      returndatasize\n      not(0x1f)\n      0x1f\n      dup3\n      add\n      and\n      dup3\n      add\n      dup1\n      0x40\n      mstore\n      pop\n      dup2\n      add\n      swap1\n      tag_20\n      swap2\n      swap1\n      tag_21\n      jump\t// in\n    tag_20:\n        /* \"contracts/PriceConverter.sol\":444:489  (,int price,,,) = priceFeed.latestRoundData() */\n      pop\n      pop\n      pop\n      swap2\n      pop\n      pop\n        /* \"contracts/PriceConverter.sol\":522:526  1e10 */\n      0x02540be400\n        /* \"contracts/PriceConverter.sol\":514:519  price */\n      dup2\n        /* \"contracts/PriceConverter.sol\":514:526  price * 1e10 */\n      tag_22\n      swap2\n      swap1\n      tag_23\n      jump\t// in\n    tag_22:\n        /* \"contracts/PriceConverter.sol\":499:527  return uint256(price * 1e10) */\n      swap3\n      pop\n      pop\n      pop\n        /* \"contracts/PriceConverter.sol\":167:534  function getPrice() internal view returns (uint256) {... */\n      swap1\n      jump\t// out\n        /* \"#utility.yul\":88:205   */\n    tag_25:\n        /* \"#utility.yul\":197:198   */\n      0x00\n        /* \"#utility.yul\":194:195   */\n      dup1\n        /* \"#utility.yul\":187:199   */\n      revert\n        /* \"#utility.yul\":334:411   */\n    tag_27:\n        /* \"#utility.yul\":371:378   */\n      0x00\n        /* \"#utility.yul\":400:405   */\n      dup2\n        /* \"#utility.yul\":389:405   */\n      swap1\n      pop\n        /* \"#utility.yul\":334:411   */\n      swap2\n      swap1\n      pop\n      jump\t// out\n        /* \"#utility.yul\":417:539   */\n    tag_28:\n        /* \"#utility.yul\":490:514   */\n      tag_46\n        /* \"#utility.yul\":508:513   */\n      dup2\n        /* \"#utility.yul\":490:514   */\n      tag_27\n      jump\t// in\n    tag_46:\n        /* \"#utility.yul\":483:488   */\n      dup2\n        /* \"#utility.yul\":480:515   */\n      eq\n        /* \"#utility.yul\":470:533   */\n      tag_47\n      jumpi\n        /* \"#utility.yul\":529:530   */\n      0x00\n        /* \"#utility.yul\":526:527   */\n      dup1\n        /* \"#utility.yul\":519:531   */\n      revert\n        /* \"#utility.yul\":470:533   */\n    tag_47:\n        /* \"#utility.yul\":417:539   */\n      pop\n      jump\t// out\n        /* \"#utility.yul\":545:684   */\n    tag_29:\n        /* \"#utility.yul\":591:596   */\n      0x00\n        /* \"#utility.yul\":629:635   */\n      dup2\n        /* \"#utility.yul\":616:636   */\n      calldataload\n        /* \"#utility.yul\":607:636   */\n      swap1\n      pop\n        /* \"#utility.yul\":645:678   */\n      tag_49\n        /* \"#utility.yul\":672:677   */\n      dup2\n        /* \"#utility.yul\":645:678   */\n      tag_28\n      jump\t// in\n    tag_49:\n        /* \"#utility.yul\":545:684   */\n      swap3\n      swap2\n      pop\n      pop\n      jump\t// out\n        /* \"#utility.yul\":690:1019   */\n    tag_5:\n        /* \"#utility.yul\":749:755   */\n      0x00\n        /* \"#utility.yul\":798:800   */\n      0x20\n        /* \"#utility.yul\":786:795   */\n      dup3\n        /* \"#utility.yul\":777:784   */\n      dup5\n        /* \"#utility.yul\":773:796   */\n      sub\n        /* \"#utility.yul\":769:801   */\n      slt\n        /* \"#utility.yul\":766:885   */\n      iszero\n      tag_51\n      jumpi\n        /* \"#utility.yul\":804:883   */\n      tag_52\n      tag_25\n      jump\t// in\n    tag_52:\n        /* \"#utility.yul\":766:885   */\n    tag_51:\n        /* \"#utility.yul\":924:925   */\n      0x00\n        /* \"#utility.yul\":949:1002   */\n      tag_53\n        /* \"#utility.yul\":994:1001   */\n      dup5\n        /* \"#utility.yul\":985:991   */\n      dup3\n        /* \"#utility.yul\":974:983   */\n      dup6\n        /* \"#utility.yul\":970:992   */\n      add\n        /* \"#utility.yul\":949:1002   */\n      tag_29\n      jump\t// in\n    tag_53:\n        /* \"#utility.yul\":939:1002   */\n      swap2\n      pop\n        /* \"#utility.yul\":895:1012   */\n      pop\n        /* \"#utility.yul\":690:1019   */\n      swap3\n      swap2\n      pop\n      pop\n      jump\t// out\n        /* \"#utility.yul\":1025:1151   */\n    tag_30:\n        /* \"#utility.yul\":1120:1144   */\n      tag_55\n        /* \"#utility.yul\":1138:1143   */\n      dup2\n        /* \"#utility.yul\":1120:1144   */\n      tag_27\n      jump\t// in\n    tag_55:\n        /* \"#utility.yul\":1115:1118   */\n      dup3\n        /* \"#utility.yul\":1108:1145   */\n      mstore\n        /* \"#utility.yul\":1025:1151   */\n      pop\n      pop\n      jump\t// out\n        /* \"#utility.yul\":1157:1395   */\n    tag_8:\n        /* \"#utility.yul\":1258:1262   */\n      0x00\n        /* \"#utility.yul\":1296:1298   */\n      0x20\n        /* \"#utility.yul\":1285:1294   */\n      dup3\n        /* \"#utility.yul\":1281:1299   */\n      add\n        /* \"#utility.yul\":1273:1299   */\n      swap1\n      pop\n        /* \"#utility.yul\":1309:1388   */\n      tag_57\n        /* \"#utility.yul\":1385:1386   */\n      0x00\n        /* \"#utility.yul\":1374:1383   */\n      dup4\n        /* \"#utility.yul\":1370:1387   */\n      add\n        /* \"#utility.yul\":1361:1367   */\n      dup5\n        /* \"#utility.yul\":1309:1388   */\n      tag_30\n      jump\t// in\n    tag_57:\n        /* \"#utility.yul\":1157:1395   */\n      swap3\n      swap2\n      pop\n      pop\n      jump\t// out\n        /* \"#utility.yul\":1401:1581   */\n    tag_31:\n        /* \"#utility.yul\":1449:1526   */\n      0x4e487b7100000000000000000000000000000000000000000000000000000000\n        /* \"#utility.yul\":1446:1447   */\n      0x00\n        /* \"#utility.yul\":1439:1527   */\n      mstore\n        /* \"#utility.yul\":1546:1550   */\n      0x11\n        /* \"#utility.yul\":1543:1544   */\n      0x04\n        /* \"#utility.yul\":1536:1551   */\n      mstore\n        /* \"#utility.yul\":1570:1574   */\n      0x24\n        /* \"#utility.yul\":1567:1568   */\n      0x00\n        /* \"#utility.yul\":1560:1575   */\n      revert\n        /* \"#utility.yul\":1587:1935   */\n    tag_13:\n        /* \"#utility.yul\":1627:1634   */\n      0x00\n        /* \"#utility.yul\":1650:1670   */\n      tag_60\n        /* \"#utility.yul\":1668:1669   */\n      dup3\n        /* \"#utility.yul\":1650:1670   */\n      tag_27\n      jump\t// in\n    tag_60:\n        /* \"#utility.yul\":1645:1670   */\n      swap2\n      pop\n        /* \"#utility.yul\":1684:1704   */\n      tag_61\n        /* \"#utility.yul\":1702:1703   */\n      dup4\n        /* \"#utility.yul\":1684:1704   */\n      tag_27\n      jump\t// in\n    tag_61:\n        /* \"#utility.yul\":1679:1704   */\n      swap3\n      pop\n        /* \"#utility.yul\":1872:1873   */\n      dup2\n        /* \"#utility.yul\":1804:1870   */\n      0xffffffffffffffffffffffffffffffffffffffffffffffffffffffffffffffff\n        /* \"#utility.yul\":1800:1874   */\n      div\n        /* \"#utility.yul\":1797:1798   */\n      dup4\n        /* \"#utility.yul\":1794:1875   */\n      gt\n        /* \"#utility.yul\":1789:1790   */\n      dup3\n        /* \"#utility.yul\":1782:1791   */\n      iszero\n        /* \"#utility.yul\":1775:1792   */\n      iszero\n        /* \"#utility.yul\":1771:1876   */\n      and\n        /* \"#utility.yul\":1768:1899   */\n      iszero\n      tag_62\n      jumpi\n        /* \"#utility.yul\":1879:1897   */\n      tag_63\n      tag_31\n      jump\t// in\n    tag_63:\n        /* \"#utility.yul\":1768:1899   */\n    tag_62:\n        /* \"#utility.yul\":1927:1928   */\n      dup3\n        /* \"#utility.yul\":1924:1925   */\n      dup3\n        /* \"#utility.yul\":1920:1929   */\n      mul\n        /* \"#utility.yul\":1909:1929   */\n      swap1\n      pop\n        /* \"#utility.yul\":1587:1935   */\n      swap3\n      swap2\n      pop\n      pop\n      jump\t// out\n        /* \"#utility.yul\":1941:2121   */\n    tag_32:\n        /* \"#utility.yul\":1989:2066   */\n      0x4e487b7100000000000000000000000000000000000000000000000000000000\n        /* \"#utility.yul\":1986:1987   */\n      0x00\n        /* \"#utility.yul\":1979:2067   */\n      mstore\n        /* \"#utility.yul\":2086:2090   */\n      0x12\n        /* \"#utility.yul\":2083:2084   */\n      0x04\n        /* \"#utility.yul\":2076:2091   */\n      mstore\n        /* \"#utility.yul\":2110:2114   */\n      0x24\n        /* \"#utility.yul\":2107:2108   */\n      0x00\n        /* \"#utility.yul\":2100:2115   */\n      revert\n        /* \"#utility.yul\":2127:2312   */\n    tag_15:\n        /* \"#utility.yul\":2167:2168   */\n      0x00\n        /* \"#utility.yul\":2184:2204   */\n      tag_66\n        /* \"#utility.yul\":2202:2203   */\n      dup3\n        /* \"#utility.yul\":2184:2204   */\n      tag_27\n      jump\t// in\n    tag_66:\n        /* \"#utility.yul\":2179:2204   */\n      swap2\n      pop\n        /* \"#utility.yul\":2218:2238   */\n      tag_67\n        /* \"#utility.yul\":2236:2237   */\n      dup4\n        /* \"#utility.yul\":2218:2238   */\n      tag_27\n      jump\t// in\n    tag_67:\n        /* \"#utility.yul\":2213:2238   */\n      swap3\n      pop\n        /* \"#utility.yul\":2257:2258   */\n      dup3\n        /* \"#utility.yul\":2247:2282   */\n      tag_68\n      jumpi\n        /* \"#utility.yul\":2262:2280   */\n      tag_69\n      tag_32\n      jump\t// in\n    tag_69:\n        /* \"#utility.yul\":2247:2282   */\n    tag_68:\n        /* \"#utility.yul\":2304:2305   */\n      dup3\n        /* \"#utility.yul\":2301:2302   */\n      dup3\n        /* \"#utility.yul\":2297:2306   */\n      div\n        /* \"#utility.yul\":2292:2306   */\n      swap1\n      pop\n        /* \"#utility.yul\":2127:2312   */\n      swap3\n      swap2\n      pop\n      pop\n      jump\t// out\n        /* \"#utility.yul\":2318:2423   */\n    tag_33:\n        /* \"#utility.yul\":2354:2361   */\n      0x00\n        /* \"#utility.yul\":2394:2416   */\n      0xffffffffffffffffffff\n        /* \"#utility.yul\":2387:2392   */\n      dup3\n        /* \"#utility.yul\":2383:2417   */\n      and\n        /* \"#utility.yul\":2372:2417   */\n      swap1\n      pop\n        /* \"#utility.yul\":2318:2423   */\n      swap2\n      swap1\n      pop\n      jump\t// out\n        /* \"#utility.yul\":2429:2549   */\n    tag_34:\n        /* \"#utility.yul\":2501:2524   */\n      tag_72\n        /* \"#utility.yul\":2518:2523   */\n      dup2\n        /* \"#utility.yul\":2501:2524   */\n      tag_33\n      jump\t// in\n    tag_72:\n        /* \"#utility.yul\":2494:2499   */\n      dup2\n        /* \"#utility.yul\":2491:2525   */\n      eq\n        /* \"#utility.yul\":2481:2543   */\n      tag_73\n      jumpi\n        /* \"#utility.yul\":2539:2540   */\n      0x00\n        /* \"#utility.yul\":2536:2537   */\n      dup1\n        /* \"#utility.yul\":2529:2541   */\n      revert\n        /* \"#utility.yul\":2481:2543   */\n    tag_73:\n        /* \"#utility.yul\":2429:2549   */\n      pop\n      jump\t// out\n        /* \"#utility.yul\":2555:2696   */\n    tag_35:\n        /* \"#utility.yul\":2611:2616   */\n      0x00\n        /* \"#utility.yul\":2642:2648   */\n      dup2\n        /* \"#utility.yul\":2636:2649   */\n      mload\n        /* \"#utility.yul\":2627:2649   */\n      swap1\n      pop\n        /* \"#utility.yul\":2658:2690   */\n      tag_75\n        /* \"#utility.yul\":2684:2689   */\n      dup2\n        /* \"#utility.yul\":2658:2690   */\n      tag_34\n      jump\t// in\n    tag_75:\n        /* \"#utility.yul\":2555:2696   */\n      swap3\n      swap2\n      pop\n      pop\n      jump\t// out\n        /* \"#utility.yul\":2702:2778   */\n    tag_36:\n        /* \"#utility.yul\":2738:2745   */\n      0x00\n        /* \"#utility.yul\":2767:2772   */\n      dup2\n        /* \"#utility.yul\":2756:2772   */\n      swap1\n      pop\n        /* \"#utility.yul\":2702:2778   */\n      swap2\n      swap1\n      pop\n      jump\t// out\n        /* \"#utility.yul\":2784:2904   */\n    tag_37:\n        /* \"#utility.yul\":2856:2879   */\n      tag_78\n        /* \"#utility.yul\":2873:2878   */\n      dup2\n        /* \"#utility.yul\":2856:2879   */\n      tag_36\n      jump\t// in\n    tag_78:\n        /* \"#utility.yul\":2849:2854   */\n      dup2\n        /* \"#utility.yul\":2846:2880   */\n      eq\n        /* \"#utility.yul\":2836:2898   */\n      tag_79\n      jumpi\n        /* \"#utility.yul\":2894:2895   */\n      0x00\n        /* \"#utility.yul\":2891:2892   */\n      dup1\n        /* \"#utility.yul\":2884:2896   */\n      revert\n        /* \"#utility.yul\":2836:2898   */\n    tag_79:\n        /* \"#utility.yul\":2784:2904   */\n      pop\n      jump\t// out\n        /* \"#utility.yul\":2910:3051   */\n    tag_38:\n        /* \"#utility.yul\":2966:2971   */\n      0x00\n        /* \"#utility.yul\":2997:3003   */\n      dup2\n        /* \"#utility.yul\":2991:3004   */\n      mload\n        /* \"#utility.yul\":2982:3004   */\n      swap1\n      pop\n        /* \"#utility.yul\":3013:3045   */\n      tag_81\n        /* \"#utility.yul\":3039:3044   */\n      dup2\n        /* \"#utility.yul\":3013:3045   */\n      tag_37\n      jump\t// in\n    tag_81:\n        /* \"#utility.yul\":2910:3051   */\n      swap3\n      swap2\n      pop\n      pop\n      jump\t// out\n        /* \"#utility.yul\":3057:3200   */\n    tag_39:\n        /* \"#utility.yul\":3114:3119   */\n      0x00\n        /* \"#utility.yul\":3145:3151   */\n      dup2\n        /* \"#utility.yul\":3139:3152   */\n      mload\n        /* \"#utility.yul\":3130:3152   */\n      swap1\n      pop\n        /* \"#utility.yul\":3161:3194   */\n      tag_83\n        /* \"#utility.yul\":3188:3193   */\n      dup2\n        /* \"#utility.yul\":3161:3194   */\n      tag_28\n      jump\t// in\n    tag_83:\n        /* \"#utility.yul\":3057:3200   */\n      swap3\n      swap2\n      pop\n      pop\n      jump\t// out\n        /* \"#utility.yul\":3206:4177   */\n    tag_21:\n        /* \"#utility.yul\":3309:3315   */\n      0x00\n        /* \"#utility.yul\":3317:3323   */\n      dup1\n        /* \"#utility.yul\":3325:3331   */\n      0x00\n        /* \"#utility.yul\":3333:3339   */\n      dup1\n        /* \"#utility.yul\":3341:3347   */\n      0x00\n        /* \"#utility.yul\":3390:3393   */\n      0xa0\n        /* \"#utility.yul\":3378:3387   */\n      dup7\n        /* \"#utility.yul\":3369:3376   */\n      dup9\n        /* \"#utility.yul\":3365:3388   */\n      sub\n        /* \"#utility.yul\":3361:3394   */\n      slt\n        /* \"#utility.yul\":3358:3478   */\n      iszero\n      tag_85\n      jumpi\n        /* \"#utility.yul\":3397:3476   */\n      tag_86\n      tag_25\n      jump\t// in\n    tag_86:\n        /* \"#utility.yul\":3358:3478   */\n    tag_85:\n        /* \"#utility.yul\":3517:3518   */\n      0x00\n        /* \"#utility.yul\":3542:3605   */\n      tag_87\n        /* \"#utility.yul\":3597:3604   */\n      dup9\n        /* \"#utility.yul\":3588:3594   */\n      dup3\n        /* \"#utility.yul\":3577:3586   */\n      dup10\n        /* \"#utility.yul\":3573:3595   */\n      add\n        /* \"#utility.yul\":3542:3605   */\n      tag_35\n      jump\t// in\n    tag_87:\n        /* \"#utility.yul\":3532:3605   */\n      swap6\n      pop\n        /* \"#utility.yul\":3488:3615   */\n      pop\n        /* \"#utility.yul\":3654:3656   */\n      0x20\n        /* \"#utility.yul\":3680:3743   */\n      tag_88\n        /* \"#utility.yul\":3735:3742   */\n      dup9\n        /* \"#utility.yul\":3726:3732   */\n      dup3\n        /* \"#utility.yul\":3715:3724   */\n      dup10\n        /* \"#utility.yul\":3711:3733   */\n      add\n        /* \"#utility.yul\":3680:3743   */\n      tag_38\n      jump\t// in\n    tag_88:\n        /* \"#utility.yul\":3670:3743   */\n      swap5\n      pop\n        /* \"#utility.yul\":3625:3753   */\n      pop\n        /* \"#utility.yul\":3792:3794   */\n      0x40\n        /* \"#utility.yul\":3818:3882   */\n      tag_89\n        /* \"#utility.yul\":3874:3881   */\n      dup9\n        /* \"#utility.yul\":3865:3871   */\n      dup3\n        /* \"#utility.yul\":3854:3863   */\n      dup10\n        /* \"#utility.yul\":3850:3872   */\n      add\n        /* \"#utility.yul\":3818:3882   */\n      tag_39\n      jump\t// in\n    tag_89:\n        /* \"#utility.yul\":3808:3882   */\n      swap4\n      pop\n        /* \"#utility.yul\":3763:3892   */\n      pop\n        /* \"#utility.yul\":3931:3933   */\n      0x60\n        /* \"#utility.yul\":3957:4021   */\n      tag_90\n        /* \"#utility.yul\":4013:4020   */\n      dup9\n        /* \"#utility.yul\":4004:4010   */\n      dup3\n        /* \"#utility.yul\":3993:4002   */\n      dup10\n        /* \"#utility.yul\":3989:4011   */\n      add\n        /* \"#utility.yul\":3957:4021   */\n      tag_39\n      jump\t// in\n    tag_90:\n        /* \"#utility.yul\":3947:4021   */\n      swap3\n      pop\n        /* \"#utility.yul\":3902:4031   */\n      pop\n        /* \"#utility.yul\":4070:4073   */\n      0x80\n        /* \"#utility.yul\":4097:4160   */\n      tag_91\n        /* \"#utility.yul\":4152:4159   */\n      dup9\n        /* \"#utility.yul\":4143:4149   */\n      dup3\n        /* \"#utility.yul\":4132:4141   */\n      dup10\n        /* \"#utility.yul\":4128:4150   */\n      add\n        /* \"#utility.yul\":4097:4160   */\n      tag_35\n      jump\t// in\n    tag_91:\n        /* \"#utility.yul\":4087:4160   */\n      swap2\n      pop\n        /* \"#utility.yul\":4041:4170   */\n      pop\n        /* \"#utility.yul\":3206:4177   */\n      swap3\n      swap6\n      pop\n      swap3\n      swap6\n      swap1\n      swap4\n      pop\n      jump\t// out\n        /* \"#utility.yul\":4183:5174   */\n    tag_23:\n        /* \"#utility.yul\":4222:4229   */\n      0x00\n        /* \"#utility.yul\":4245:4264   */\n      tag_93\n        /* \"#utility.yul\":4262:4263   */\n      dup3\n        /* \"#utility.yul\":4245:4264   */\n      tag_36\n      jump\t// in\n    tag_93:\n        /* \"#utility.yul\":4240:4264   */\n      swap2\n      pop\n        /* \"#utility.yul\":4278:4297   */\n      tag_94\n        /* \"#utility.yul\":4295:4296   */\n      dup4\n        /* \"#utility.yul\":4278:4297   */\n      tag_36\n      jump\t// in\n    tag_94:\n        /* \"#utility.yul\":4273:4297   */\n      swap3\n      pop\n        /* \"#utility.yul\":4479:4480   */\n      dup3\n        /* \"#utility.yul\":4411:4477   */\n      0x7fffffffffffffffffffffffffffffffffffffffffffffffffffffffffffffff\n        /* \"#utility.yul\":4407:4481   */\n      div\n        /* \"#utility.yul\":4404:4405   */\n      dup3\n        /* \"#utility.yul\":4401:4482   */\n      gt\n        /* \"#utility.yul\":4396:4397   */\n      0x00\n        /* \"#utility.yul\":4393:4394   */\n      dup5\n        /* \"#utility.yul\":4389:4398   */\n      sgt\n        /* \"#utility.yul\":4385:4386   */\n      0x00\n        /* \"#utility.yul\":4382:4383   */\n      dup5\n        /* \"#utility.yul\":4378:4387   */\n      sgt\n        /* \"#utility.yul\":4374:4399   */\n      and\n        /* \"#utility.yul\":4370:4483   */\n      and\n        /* \"#utility.yul\":4367:4506   */\n      iszero\n      tag_95\n      jumpi\n        /* \"#utility.yul\":4486:4504   */\n      tag_96\n      tag_31\n      jump\t// in\n    tag_96:\n        /* \"#utility.yul\":4367:4506   */\n    tag_95:\n        /* \"#utility.yul\":4690:4691   */\n      dup2\n        /* \"#utility.yul\":4622:4688   */\n      0x8000000000000000000000000000000000000000000000000000000000000000\n        /* \"#utility.yul\":4617:4692   */\n      sdiv\n        /* \"#utility.yul\":4614:4615   */\n      dup4\n        /* \"#utility.yul\":4610:4693   */\n      slt\n        /* \"#utility.yul\":4605:4606   */\n      0x00\n        /* \"#utility.yul\":4602:4603   */\n      dup5\n        /* \"#utility.yul\":4598:4607   */\n      slt\n        /* \"#utility.yul\":4594:4595   */\n      0x00\n        /* \"#utility.yul\":4591:4592   */\n      dup5\n        /* \"#utility.yul\":4587:4596   */\n      sgt\n        /* \"#utility.yul\":4583:4608   */\n      and\n        /* \"#utility.yul\":4579:4694   */\n      and\n        /* \"#utility.yul\":4576:4717   */\n      iszero\n      tag_97\n      jumpi\n        /* \"#utility.yul\":4697:4715   */\n      tag_98\n      tag_31\n      jump\t// in\n    tag_98:\n        /* \"#utility.yul\":4576:4717   */\n    tag_97:\n        /* \"#utility.yul\":4901:4902   */\n      dup3\n        /* \"#utility.yul\":4833:4899   */\n      0x8000000000000000000000000000000000000000000000000000000000000000\n        /* \"#utility.yul\":4828:4903   */\n      sdiv\n        /* \"#utility.yul\":4825:4826   */\n      dup3\n        /* \"#utility.yul\":4821:4904   */\n      slt\n        /* \"#utility.yul\":4816:4817   */\n      0x00\n        /* \"#utility.yul\":4813:4814   */\n      dup5\n        /* \"#utility.yul\":4809:4818   */\n      sgt\n        /* \"#utility.yul\":4805:4806   */\n      0x00\n        /* \"#utility.yul\":4802:4803   */\n      dup5\n        /* \"#utility.yul\":4798:4807   */\n      slt\n        /* \"#utility.yul\":4794:4819   */\n      and\n        /* \"#utility.yul\":4790:4905   */\n      and\n        /* \"#utility.yul\":4787:4928   */\n      iszero\n      tag_99\n      jumpi\n        /* \"#utility.yul\":4908:4926   */\n      tag_100\n      tag_31\n      jump\t// in\n    tag_100:\n        /* \"#utility.yul\":4787:4928   */\n    tag_99:\n        /* \"#utility.yul\":5111:5112   */\n      dup3\n        /* \"#utility.yul\":5043:5109   */\n      0x7fffffffffffffffffffffffffffffffffffffffffffffffffffffffffffffff\n        /* \"#utility.yul\":5038:5113   */\n      sdiv\n        /* \"#utility.yul\":5035:5036   */\n      dup3\n        /* \"#utility.yul\":5031:5114   */\n      slt\n        /* \"#utility.yul\":5026:5027   */\n      0x00\n        /* \"#utility.yul\":5023:5024   */\n      dup5\n        /* \"#utility.yul\":5019:5028   */\n      slt\n        /* \"#utility.yul\":5015:5016   */\n      0x00\n        /* \"#utility.yul\":5012:5013   */\n      dup5\n        /* \"#utility.yul\":5008:5017   */\n      slt\n        /* \"#utility.yul\":5004:5029   */\n      and\n        /* \"#utility.yul\":5000:5115   */\n      and\n        /* \"#utility.yul\":4997:5138   */\n      iszero\n      tag_101\n      jumpi\n        /* \"#utility.yul\":5118:5136   */\n      tag_102\n      tag_31\n      jump\t// in\n    tag_102:\n        /* \"#utility.yul\":4997:5138   */\n    tag_101:\n        /* \"#utility.yul\":5166:5167   */\n      dup3\n        /* \"#utility.yul\":5163:5164   */\n      dup3\n        /* \"#utility.yul\":5159:5168   */\n      mul\n        /* \"#utility.yul\":5148:5168   */\n      swap1\n      pop\n        /* \"#utility.yul\":4183:5174   */\n      swap3\n      swap2\n      pop\n      pop\n      jump\t// out\n\n    auxdata: 0xa264697066735822122030ce00dfe793db659ab928c1721579e223968b156a23d79b6a92f27fb3f3899a64736f6c63430008080033\n}\n",
				"bytecode": {
					"linkReferences": {},
					"object": "61052c610053600b82828239805160001a607314610046577f4e487b7100000000000000000000000000000000000000000000000000000000600052600060045260246000fd5b30600052607381538281f3fe73000000000000000000000000000000000000000030146080604052600436106100355760003560e01c80636e5b6b281461003a575b600080fd5b610054600480360381019061004f9190610197565b61006a565b60405161006191906101d3565b60405180910390f35b6000806100756100a4565b90506000670de0b6b3a7640000848361008e919061021d565b61009891906102a6565b90508092505050919050565b60008073d4a33860578de61dbabdc8bfdb98fd742fa7028e905060008173ffffffffffffffffffffffffffffffffffffffff1663feaf968c6040518163ffffffff1660e01b815260040160a06040518083038186803b15801561010657600080fd5b505afa15801561011a573d6000803e3d6000fd5b505050506040513d601f19601f8201168201806040525081019061013e9190610364565b5050509150506402540be4008161015591906103df565b9250505090565b600080fd5b6000819050919050565b61017481610161565b811461017f57600080fd5b50565b6000813590506101918161016b565b92915050565b6000602082840312156101ad576101ac61015c565b5b60006101bb84828501610182565b91505092915050565b6101cd81610161565b82525050565b60006020820190506101e860008301846101c4565b92915050565b7f4e487b7100000000000000000000000000000000000000000000000000000000600052601160045260246000fd5b600061022882610161565b915061023383610161565b9250817fffffffffffffffffffffffffffffffffffffffffffffffffffffffffffffffff048311821515161561026c5761026b6101ee565b5b828202905092915050565b7f4e487b7100000000000000000000000000000000000000000000000000000000600052601260045260246000fd5b60006102b182610161565b91506102bc83610161565b9250826102cc576102cb610277565b5b828204905092915050565b600069ffffffffffffffffffff82169050919050565b6102f6816102d7565b811461030157600080fd5b50565b600081519050610313816102ed565b92915050565b6000819050919050565b61032c81610319565b811461033757600080fd5b50565b60008151905061034981610323565b92915050565b60008151905061035e8161016b565b92915050565b600080600080600060a086880312156103805761037f61015c565b5b600061038e88828901610304565b955050602061039f8882890161033a565b94505060406103b08882890161034f565b93505060606103c18882890161034f565b92505060806103d288828901610304565b9150509295509295909350565b60006103ea82610319565b91506103f583610319565b9250827f7fffffffffffffffffffffffffffffffffffffffffffffffffffffffffffffff0482116000841360008413161615610434576104336101ee565b5b817f80000000000000000000000000000000000000000000000000000000000000000583126000841260008413161615610471576104706101ee565b5b827f800000000000000000000000000000000000000000000000000000000000000005821260008413600084121616156104ae576104ad6101ee565b5b827f7fffffffffffffffffffffffffffffffffffffffffffffffffffffffffffffff05821260008412600084121616156104eb576104ea6101ee565b5b82820290509291505056fea264697066735822122030ce00dfe793db659ab928c1721579e223968b156a23d79b6a92f27fb3f3899a64736f6c63430008080033",
					"opcodes": "PUSH2 0x52C PUSH2 0x53 PUSH1 0xB DUP3 DUP3 DUP3 CODECOPY DUP1 MLOAD PUSH1 0x0 BYTE PUSH1 0x73 EQ PUSH2 0x46 JUMPI PUSH32 0x4E487B7100000000000000000000000000000000000000000000000000000000 PUSH1 0x0 MSTORE PUSH1 0x0 PUSH1 0x4 MSTORE PUSH1 0x24 PUSH1 0x0 REVERT JUMPDEST ADDRESS PUSH1 0x0 MSTORE PUSH1 0x73 DUP2 MSTORE8 DUP3 DUP2 RETURN INVALID PUSH20 0x0 ADDRESS EQ PUSH1 0x80 PUSH1 0x40 MSTORE PUSH1 0x4 CALLDATASIZE LT PUSH2 0x35 JUMPI PUSH1 0x0 CALLDATALOAD PUSH1 0xE0 SHR DUP1 PUSH4 0x6E5B6B28 EQ PUSH2 0x3A JUMPI JUMPDEST PUSH1 0x0 DUP1 REVERT JUMPDEST PUSH2 0x54 PUSH1 0x4 DUP1 CALLDATASIZE SUB DUP2 ADD SWAP1 PUSH2 0x4F SWAP2 SWAP1 PUSH2 0x197 JUMP JUMPDEST PUSH2 0x6A JUMP JUMPDEST PUSH1 0x40 MLOAD PUSH2 0x61 SWAP2 SWAP1 PUSH2 0x1D3 JUMP JUMPDEST PUSH1 0x40 MLOAD DUP1 SWAP2 SUB SWAP1 RETURN JUMPDEST PUSH1 0x0 DUP1 PUSH2 0x75 PUSH2 0xA4 JUMP JUMPDEST SWAP1 POP PUSH1 0x0 PUSH8 0xDE0B6B3A7640000 DUP5 DUP4 PUSH2 0x8E SWAP2 SWAP1 PUSH2 0x21D JUMP JUMPDEST PUSH2 0x98 SWAP2 SWAP1 PUSH2 0x2A6 JUMP JUMPDEST SWAP1 POP DUP1 SWAP3 POP POP POP SWAP2 SWAP1 POP JUMP JUMPDEST PUSH1 0x0 DUP1 PUSH20 0xD4A33860578DE61DBABDC8BFDB98FD742FA7028E SWAP1 POP PUSH1 0x0 DUP2 PUSH20 0xFFFFFFFFFFFFFFFFFFFFFFFFFFFFFFFFFFFFFFFF AND PUSH4 0xFEAF968C PUSH1 0x40 MLOAD DUP2 PUSH4 0xFFFFFFFF AND PUSH1 0xE0 SHL DUP2 MSTORE PUSH1 0x4 ADD PUSH1 0xA0 PUSH1 0x40 MLOAD DUP1 DUP4 SUB DUP2 DUP7 DUP1 EXTCODESIZE ISZERO DUP1 ISZERO PUSH2 0x106 JUMPI PUSH1 0x0 DUP1 REVERT JUMPDEST POP GAS STATICCALL ISZERO DUP1 ISZERO PUSH2 0x11A JUMPI RETURNDATASIZE PUSH1 0x0 DUP1 RETURNDATACOPY RETURNDATASIZE PUSH1 0x0 REVERT JUMPDEST POP POP POP POP PUSH1 0x40 MLOAD RETURNDATASIZE PUSH1 0x1F NOT PUSH1 0x1F DUP3 ADD AND DUP3 ADD DUP1 PUSH1 0x40 MSTORE POP DUP2 ADD SWAP1 PUSH2 0x13E SWAP2 SWAP1 PUSH2 0x364 JUMP JUMPDEST POP POP POP SWAP2 POP POP PUSH5 0x2540BE400 DUP2 PUSH2 0x155 SWAP2 SWAP1 PUSH2 0x3DF JUMP JUMPDEST SWAP3 POP POP POP SWAP1 JUMP JUMPDEST PUSH1 0x0 DUP1 REVERT JUMPDEST PUSH1 0x0 DUP2 SWAP1 POP SWAP2 SWAP1 POP JUMP JUMPDEST PUSH2 0x174 DUP2 PUSH2 0x161 JUMP JUMPDEST DUP2 EQ PUSH2 0x17F JUMPI PUSH1 0x0 DUP1 REVERT JUMPDEST POP JUMP JUMPDEST PUSH1 0x0 DUP2 CALLDATALOAD SWAP1 POP PUSH2 0x191 DUP2 PUSH2 0x16B JUMP JUMPDEST SWAP3 SWAP2 POP POP JUMP JUMPDEST PUSH1 0x0 PUSH1 0x20 DUP3 DUP5 SUB SLT ISZERO PUSH2 0x1AD JUMPI PUSH2 0x1AC PUSH2 0x15C JUMP JUMPDEST JUMPDEST PUSH1 0x0 PUSH2 0x1BB DUP5 DUP3 DUP6 ADD PUSH2 0x182 JUMP JUMPDEST SWAP2 POP POP SWAP3 SWAP2 POP POP JUMP JUMPDEST PUSH2 0x1CD DUP2 PUSH2 0x161 JUMP JUMPDEST DUP3 MSTORE POP POP JUMP JUMPDEST PUSH1 0x0 PUSH1 0x20 DUP3 ADD SWAP1 POP PUSH2 0x1E8 PUSH1 0x0 DUP4 ADD DUP5 PUSH2 0x1C4 JUMP JUMPDEST SWAP3 SWAP2 POP POP JUMP JUMPDEST PUSH32 0x4E487B7100000000000000000000000000000000000000000000000000000000 PUSH1 0x0 MSTORE PUSH1 0x11 PUSH1 0x4 MSTORE PUSH1 0x24 PUSH1 0x0 REVERT JUMPDEST PUSH1 0x0 PUSH2 0x228 DUP3 PUSH2 0x161 JUMP JUMPDEST SWAP2 POP PUSH2 0x233 DUP4 PUSH2 0x161 JUMP JUMPDEST SWAP3 POP DUP2 PUSH32 0xFFFFFFFFFFFFFFFFFFFFFFFFFFFFFFFFFFFFFFFFFFFFFFFFFFFFFFFFFFFFFFFF DIV DUP4 GT DUP3 ISZERO ISZERO AND ISZERO PUSH2 0x26C JUMPI PUSH2 0x26B PUSH2 0x1EE JUMP JUMPDEST JUMPDEST DUP3 DUP3 MUL SWAP1 POP SWAP3 SWAP2 POP POP JUMP JUMPDEST PUSH32 0x4E487B7100000000000000000000000000000000000000000000000000000000 PUSH1 0x0 MSTORE PUSH1 0x12 PUSH1 0x4 MSTORE PUSH1 0x24 PUSH1 0x0 REVERT JUMPDEST PUSH1 0x0 PUSH2 0x2B1 DUP3 PUSH2 0x161 JUMP JUMPDEST SWAP2 POP PUSH2 0x2BC DUP4 PUSH2 0x161 JUMP JUMPDEST SWAP3 POP DUP3 PUSH2 0x2CC JUMPI PUSH2 0x2CB PUSH2 0x277 JUMP JUMPDEST JUMPDEST DUP3 DUP3 DIV SWAP1 POP SWAP3 SWAP2 POP POP JUMP JUMPDEST PUSH1 0x0 PUSH10 0xFFFFFFFFFFFFFFFFFFFF DUP3 AND SWAP1 POP SWAP2 SWAP1 POP JUMP JUMPDEST PUSH2 0x2F6 DUP2 PUSH2 0x2D7 JUMP JUMPDEST DUP2 EQ PUSH2 0x301 JUMPI PUSH1 0x0 DUP1 REVERT JUMPDEST POP JUMP JUMPDEST PUSH1 0x0 DUP2 MLOAD SWAP1 POP PUSH2 0x313 DUP2 PUSH2 0x2ED JUMP JUMPDEST SWAP3 SWAP2 POP POP JUMP JUMPDEST PUSH1 0x0 DUP2 SWAP1 POP SWAP2 SWAP1 POP JUMP JUMPDEST PUSH2 0x32C DUP2 PUSH2 0x319 JUMP JUMPDEST DUP2 EQ PUSH2 0x337 JUMPI PUSH1 0x0 DUP1 REVERT JUMPDEST POP JUMP JUMPDEST PUSH1 0x0 DUP2 MLOAD SWAP1 POP PUSH2 0x349 DUP2 PUSH2 0x323 JUMP JUMPDEST SWAP3 SWAP2 POP POP JUMP JUMPDEST PUSH1 0x0 DUP2 MLOAD SWAP1 POP PUSH2 0x35E DUP2 PUSH2 0x16B JUMP JUMPDEST SWAP3 SWAP2 POP POP JUMP JUMPDEST PUSH1 0x0 DUP1 PUSH1 0x0 DUP1 PUSH1 0x0 PUSH1 0xA0 DUP7 DUP9 SUB SLT ISZERO PUSH2 0x380 JUMPI PUSH2 0x37F PUSH2 0x15C JUMP JUMPDEST JUMPDEST PUSH1 0x0 PUSH2 0x38E DUP9 DUP3 DUP10 ADD PUSH2 0x304 JUMP JUMPDEST SWAP6 POP POP PUSH1 0x20 PUSH2 0x39F DUP9 DUP3 DUP10 ADD PUSH2 0x33A JUMP JUMPDEST SWAP5 POP POP PUSH1 0x40 PUSH2 0x3B0 DUP9 DUP3 DUP10 ADD PUSH2 0x34F JUMP JUMPDEST SWAP4 POP POP PUSH1 0x60 PUSH2 0x3C1 DUP9 DUP3 DUP10 ADD PUSH2 0x34F JUMP JUMPDEST SWAP3 POP POP PUSH1 0x80 PUSH2 0x3D2 DUP9 DUP3 DUP10 ADD PUSH2 0x304 JUMP JUMPDEST SWAP2 POP POP SWAP3 SWAP6 POP SWAP3 SWAP6 SWAP1 SWAP4 POP JUMP JUMPDEST PUSH1 0x0 PUSH2 0x3EA DUP3 PUSH2 0x319 JUMP JUMPDEST SWAP2 POP PUSH2 0x3F5 DUP4 PUSH2 0x319 JUMP JUMPDEST SWAP3 POP DUP3 PUSH32 0x7FFFFFFFFFFFFFFFFFFFFFFFFFFFFFFFFFFFFFFFFFFFFFFFFFFFFFFFFFFFFFFF DIV DUP3 GT PUSH1 0x0 DUP5 SGT PUSH1 0x0 DUP5 SGT AND AND ISZERO PUSH2 0x434 JUMPI PUSH2 0x433 PUSH2 0x1EE JUMP JUMPDEST JUMPDEST DUP2 PUSH32 0x8000000000000000000000000000000000000000000000000000000000000000 SDIV DUP4 SLT PUSH1 0x0 DUP5 SLT PUSH1 0x0 DUP5 SGT AND AND ISZERO PUSH2 0x471 JUMPI PUSH2 0x470 PUSH2 0x1EE JUMP JUMPDEST JUMPDEST DUP3 PUSH32 0x8000000000000000000000000000000000000000000000000000000000000000 SDIV DUP3 SLT PUSH1 0x0 DUP5 SGT PUSH1 0x0 DUP5 SLT AND AND ISZERO PUSH2 0x4AE JUMPI PUSH2 0x4AD PUSH2 0x1EE JUMP JUMPDEST JUMPDEST DUP3 PUSH32 0x7FFFFFFFFFFFFFFFFFFFFFFFFFFFFFFFFFFFFFFFFFFFFFFFFFFFFFFFFFFFFFFF SDIV DUP3 SLT PUSH1 0x0 DUP5 SLT PUSH1 0x0 DUP5 SLT AND AND ISZERO PUSH2 0x4EB JUMPI PUSH2 0x4EA PUSH2 0x1EE JUMP JUMPDEST JUMPDEST DUP3 DUP3 MUL SWAP1 POP SWAP3 SWAP2 POP POP JUMP INVALID LOG2 PUSH5 0x6970667358 0x22 SLT KECCAK256 ADDRESS 0xCE STOP 0xDF 0xE7 SWAP4 0xDB PUSH6 0x9AB928C17215 PUSH26 0xE223968B156A23D79B6A92F27FB3F3899A64736F6C6343000808 STOP CALLER "
				},
				"gasEstimates": {
					"creation": {
						"codeDepositCost": "264800",
						"executionCost": "331",
						"totalCost": "265131"
					},
					"external": {
						"getConversionRate(uint256)": "infinite"
					},
					"internal": {
						"getPrice()": "infinite",
						"getVersion()": "infinite"
					}
				},
				"methodIdentifiers": {
					"getConversionRate(uint256)": "6e5b6b28"
				}
			},
			"storageLayout": {
				"storage": [],
				"types": null
			},
			"userdoc": {
				"kind": "user",
				"methods": {},
				"version": 1
			}
		}
	}
}